:100000000C9462000C948A000C948A000C948A0070
:100010000C948A000C948A000C948A000C948A0038
:100020000C948A000C948A000C948A000C948A0028
:100030000C948A000C948A000C948A000C948A0018
:100040000C94FD050C948A000C94CB050C94A5052A
:100050000C948A000C948A000C948A000C948A00F8
:100060000C948A000C948A000000000024002700F1
:100070002A0000000000250028002B0000000008D6
:10008000000201000003040700000000000000005F
:1000900000000000230026002900040404040404D6
:1000A0000404020202020202030303030303010227
:1000B00004081020408001020408102001020408F6
:1000C0001020470611241FBECFEFD8E0DEBFCDBF02
:1000D00011E0A0E0B1E0E8E2F4E102C005900D9289
:1000E000A438B107D9F722E0A4E8B1E001C01D921D
:1000F000A435B207E1F710E0C2E6D0E004C02197D2
:10010000FE010E940C0AC136D107C9F70E94B2064F
:100110000C94120A0C9400008F929F92AF92BF929F
:10012000CF92DF92EF92FF92CF93DF93A0913102B3
:1001300030E081113A2F8091320290E0880F991FB0
:10014000AC0140575F4FC0903702D0903802E0902A
:100150003902F0903A0260E070E0CB01FA01C591FB
:10016000D49128812A2323130FC04B015C012FEF68
:10017000821A920AA20AB20A6C157D058E059F05A5
:1001800070F060E070E0CB01DF91CF91FF90EF90D5
:10019000DF90CF90BF90AF909F908F900895C50152
:1001A000B401DCCFAF92BF92CF92DF92EF92FF9279
:1001B0000F931F93CF93DF936C017B018B01040F8F
:1001C000151FEB015E01AE18BF08C017D10759F02B
:1001D0006991D601ED91FC910190F081E02DC6016D
:1001E0000995892B79F7C501DF91CF911F910F9167
:1001F000FF90EF90DF90CF90BF90AF900895FC01FB
:10020000538D448D252F30E0842F90E0821B930B7B
:10021000541710F0CF96089501970895FC01918D21
:10022000828D981761F0A28DAE0FBF2FB11D5D9624
:100230008C91928D9F5F9F73928F90E008958FEFC6
:100240009FEF0895FC01918D828D981731F0828D7A
:10025000E80FF11D858D90E008958FEF9FEF0895D1
:10026000FC01918D228D892F90E0805C9F4F821B35
:1002700091098F73992708958DE891E00E943001CC
:1002800021E0892B09F420E0822F089580E090E09E
:10029000892B29F00E943C0181110C9400000895E3
:1002A000FC01A48DA80FB92FB11DA35ABF4F2C91EB
:1002B000848D90E001968F739927848FA689B789E2
:1002C0002C93A089B1898C91837080648C93938DD9
:1002D000848D981306C00288F389E02D80818F7D7C
:1002E00080830895EF92FF920F931F93CF93DF9334
:1002F000EC0181E0888F9B8D8C8D98131AC0E88962
:10030000F989808185FF15C09FB7F894EE89FF8930
:100310006083E889F98980818370806480839FBFCE
:1003200081E090E0DF91CF911F910F91FF90EF90CE
:100330000895F62E0B8D10E00F5F1F4F0F731127DE
:10034000E02E8C8D8E110CC00FB607FCFACFE88919
:10035000F989808185FFF5CFCE010E945001F1CF50
:10036000EB8DEC0FFD2FF11DE35AFF4FF0829FB78D
:10037000F8940B8FEA89FB8980818062CFCFCF937D
:10038000DF93EC01888D8823B9F0AA89BB89E889BD
:10039000F9898C9185FD03C0808186FD0DC00FB663
:1003A00007FCF7CF8C9185FFF2CF808185FFEDCFE1
:1003B000CE010E945001E9CFDF91CF91089590E0E6
:1003C000FC01E458FF4F2491FC01E255FF4F3491AA
:1003D000FC01E656FF4FE491EE23C9F0222339F0E9
:1003E000233001F1A8F4213019F1223029F1F0E095
:1003F000EE0FFF1FEE58FF4FA591B4918FB7F89401
:10040000EC91611126C030953E233C938FBF089537
:100410002730A9F02830C9F0243049F780918000B6
:100420008F7D03C0809180008F7780938000DFCF25
:1004300084B58F7784BDDBCF84B58F7DFBCF809172
:10044000B0008F778093B000D2CF8091B0008F7DC5
:10045000F9CF3E2BDACFCF93DF9390E0FC01E2554A
:10046000FF4F249186569F4FFC0184918823D1F041
:1004700090E0880F991FFC01E859FF4FA591B491B6
:10048000FC01EE58FF4FC591D491623071F49FB7D3
:10049000F8943C91822F809583238C93E8812E2BB6
:1004A00028839FBFDF91CF9108958FB7F894EC9187
:1004B0002E2B2C938FBFF6CF8E3008F08E50877086
:1004C000806480937C0080917A00806480937A00BD
:1004D00080917A0086FDFCCF809178009091790020
:1004E00008953FB7F8948091850190918601A0917D
:1004F0008701B091880126B5A89B05C02F3F19F050
:100500000196A11DB11D3FBFBA2FA92F982F882793
:10051000BC01CD01620F711D811D911D42E0660F6E
:10052000771F881F991F4A95D1F708958F929F9240
:10053000AF92BF92CF92DF92EF92FF924B015C019C
:100540000E9471026B017C010E9471026C197D098D
:100550008E099F09683E734081059105A8F321E04B
:10056000821A9108A108B10888EEC80E83E0D81E4F
:10057000E11CF11C81149104A104B10429F7FF903E
:10058000EF90DF90CF90BF90AF909F908F900895A5
:10059000CF92DF92EF92FF920F931F93CF93DF934F
:1005A000CDB7DEB7C054D1400FB6F894DEBF0FBE52
:1005B000CDBF2FB7F8948091890190918A01A091C5
:1005C0008B01B0918C012FBF4091330250913402C6
:1005D00060913502709136028C019D01041B150B50
:1005E000260B370BB901A801403D57406105710545
:1005F00090F480913B02C05CDE4F0FB6F894DEBFF2
:100600000FBECDBFDF91CF911F910F91FF90EF9063
:10061000DF90CF9008958093330290933402A0939B
:100620003502B093360210922E0210922D021092D3
:100630002C0210922B0210922A0261E080912F026C
:100640000E94DF016AEF70E080E090E00E94960275
:1006500061E080912F020E942B0260E080912F02C6
:100660000E94DF0164E170E080E090E00E94960269
:10067000F89461E080912F020E94DF018BE990E005
:100680000197F1F762E080912F020E942B0283E232
:1006900090E00197F1F780E00E948C00672B682BB7
:1006A000692B29F410923B02789480E0A4CF81E07A
:1006B0000E948C00672B682B692BA1F38E010F5FC2
:1006C0001F4F6E012FEBC21A2EEFD20A780180E085
:1006D0000E948C00F701608371838283938381E0A1
:1006E0000E948C00F7016483758386839783F8E00A
:1006F000EF0EF11CEC14FD0451F7789430E020E08B
:10070000F801C080D180E280F38044815581668108
:100710007781C114D104E104F10429F04115510598
:100720006105710519F410923B02BFCFF90183E016
:10073000F595E7958A95E1F7E65DFD4F8081880F95
:10074000C416D506E606F70610F180832F5F3F4FEB
:10075000085F1F4F2832310599F640912E022091F3
:100760002A0280912B02280F3327331F80912C02FD
:10077000280F311D80912D02820F932F911D9927F3
:100780004817190681F681E080933B0234CF8160DF
:10079000DCCF089590E080E00895CF93DF93EC01E3
:1007A00060E08E810E94DF0161E08E810E94DF01A6
:1007B00060E08E810E94DF018BE891E00197F1F704
:1007C000DF91CF910895CF92DF92EF92FF920F9336
:1007D0001F93CF93DF936C017C0187E0E80EF11C3F
:1007E000D0E0C0E0062F10E0B8010C2E02C07595D5
:1007F00067950A94E2F76170F70181917F010E9489
:10080000DF012196C430D10579F7C601DF91CF9180
:100810001F910F91FF90EF90DF90CF900C94CD033C
:10082000CF92DF92EF92FF920F931F93CF93DF93BC
:10083000EC01F62E642F8C810E94DF018D818F3FA9
:1008400019F060E00E94DF010F2D10E08F8584FF1A
:1008500025C06E0187E0C80ED11CF12CE12CB80137
:100860000E2C02C0759567950A94E2F76170F60147
:1008700081916F010E94DF01FFEFEF1AFF0A88E00C
:10088000E816F10461F7CE01DF91CF911F910F912E
:10089000FF90EF90DF90CF900C94CD03B80184E0EF
:1008A000759567958A95E1F7CE010E94E3036F2D58
:1008B000CE01DF91CF911F910F91FF90EF90DF90CC
:1008C000CF900C94E30340E0682F8CE392E00C940B
:1008D0001004CF93DF93823029F490914B029860FB
:1008E00090934B0280934F021092500280E48093C9
:1008F000510280E18093520280E58093530261E0CF
:10090000809140020E942B02809141028F3F19F09A
:1009100061E00E942B0261E0809142020E942B0262
:10092000CCE3D2E09E012C53324080914B0284FDF7
:100930000BC084E090E021962817390744F461E069
:100940008E810E942B02EECF88E090E0F4CF8BE303
:100950009DE00197F1F760E0809140020E94DF0185
:1009600060E0809142020E94DF01809141028F3F4E
:1009700019F060E00E94DF0180914B0284FD39C0D4
:1009800063E08CE392E00E94E303CBE4D6E4CE0183
:100990000197F1F763E08CE392E00E94E303219773
:1009A000F1F763E08CE392E00E94E30383E592E0D9
:1009B0000197F1F762E08CE392E00E94E3038091FB
:1009C0004B0280620E94630484E080934C028CE0BE
:1009D0000E94630481E00E9463048BE39FE101971E
:1009E000F1F782E080934D0286E0DF91CF910C9485
:1009F000630480620E9463048BE496E40197F1F73C
:100A000080914B0280620E94630483E592E001972B
:100A1000F1F780914B0280620E946304D0CF41E0E5
:100A20000E94100481E090E00895FB0101900020F5
:100A3000E9F73197AF01461B570BDC01ED91FC91B3
:100A40000280F381E02D09948F929F92AF92BF9222
:100A5000CF92DF92EF92FF920F931F93CF93DF938A
:100A6000CDB7DEB7A1970FB6F894DEBF0FBECDBFEE
:100A70006C01990FEE08FF08F7FE43C06DE28DE8A8
:100A800091E00E9472018C0122273327A9012C19C1
:100A90003D094E095F0919A2CE0181967C019AE0B9
:100AA000892E912CA12CB12CCA01B901A501940168
:100AB0000E94EA09605DF70162937F01211531050B
:100AC0004105510589F790E080E0309729F0BF019A
:100AD0008DE891E00E941505800F911FA1960FB639
:100AE000F894DEBF0FBECDBFDF91CF911F910F9164
:100AF000FF90EF90DF90CF90BF90AF909F908F903E
:100B00000895A701960119A28E010F5D1F4F8AE07B
:100B1000C82ED12CE12CF12CCA01B901A7019601F4
:100B20000E94EA09605DF80162938F012115310589
:100B30004105510589F790E080E0309779F2BF01D7
:100B40008DE891E00E941505C9CF1F920F920FB654
:100B50000F9211242F933F934F935F936F937F9343
:100B60008F939F93AF93BF93EF93FF938DE891E0A3
:100B70000E945001FF91EF91BF91AF919F918F9192
:100B80007F916F915F914F913F912F910F900FBE89
:100B90000F901F9018951F920F920FB60F9211246D
:100BA0002F938F939F93EF93FF93E0919D01F0918B
:100BB0009E018081E091A301F091A40182FD1BC000
:100BC00090818091A6018F5F8F732091A70182177A
:100BD00041F0E091A601F0E0E357FE4F958F80933E
:100BE000A601FF91EF919F918F912F910F900FBED2
:100BF0000F901F9018958081F4CF1F920F920FB61F
:100C00000F9211242F933F938F939F93AF93BF9392
:100C10008091890190918A01A0918B01B0918C0102
:100C20003091840123E0230F2D3758F50196A11D43
:100C3000B11D209384018093890190938A01A09330
:100C40008B01B0938C018091850190918601A091D8
:100C50008701B09188010196A11DB11D8093850186
:100C600090938601A0938701B0938801BF91AF91C3
:100C70009F918F913F912F910F900FBE0F901F90DA
:100C8000189526E8230F0296A11DB11DD2CFEDE8DD
:100C9000F1E01382128288EE93E0A0E0B0E084835A
:100CA0009583A683B78384E091E09183808385EC6C
:100CB00090E09587848784EC90E09787868780EC26
:100CC00090E0918B808B81EC90E0938B828B82EC17
:100CD00090E0958B848B86EC90E0978B868B118EC1
:100CE000128E138E148EECE3F2E01382128286E1F0
:100CF00091E09183808382E084838FEF858383E01A
:100D0000868384E0878385E0808786E0818787E02B
:100D100082871386148615861686178681E00E94C0
:100D20006904AAE2B2E08FE015968C9315978BE0E8
:100D300016968C931697EDEBF0E0E4911796EC93F2
:100D40001797E9EAF0E0E4911896EC93189740E8D9
:100D50005EE360E070E01D964D935D936D937C9330
:100D600050970895789484B5826084BD84B581607D
:100D700084BD85B5826085BD85B5816085BD809166
:100D80006E00816080936E001092810080918100DE
:100D900082608093810080918100816080938100D6
:100DA000809180008160809380008091B100846098
:100DB0008093B1008091B00081608093B0008091F9
:100DC0007A00846080937A0080917A0082608093B8
:100DD0007A0080917A00816080937A0080917A0015
:100DE000806880937A001092C10082E00E946904BA
:100DF0006EE171E08CE392E00E941505E0914F02F4
:100E0000E23008F08BC0E150F0E0E45CFD4F8489F3
:100E100080680E9463046FE371E08CE392E00E94BB
:100E20001505E0919D01F0919E0182E08083E091A3
:100E30009901F0919A011082E0919B01F0919C013F
:100E40008FEC80831092A501E091A101F091A201A5
:100E500086E08083E0919F01F091A0018081806114
:100E60008083E0919F01F091A00180818860808360
:100E7000E0919F01F091A001808180688083E091E2
:100E80009F01F091A00180818F7D808362E080913D
:100E90002F020E942B0280E398EFAFEFBFEF809309
:100EA000330290933402A0933502B0933602C0E02F
:100EB000D0E00DE010E088E10E94630466E970E094
:100EC00080E090E00E94960201501109A1F78EE0A7
:100ED0000E945C028EE00E945C02BC01990F880BAC
:100EE000990B0E94F10820E030E040EA5BE30E94A9
:100EF0007D092B013C010E94C802882341F08091AA
:100F000030028B3069F018F08551823030F1C12CFD
:100F1000D12C90ECE92E9FE7F92E0BC0E1E074CFC5
:100F200060912C0270E090E080E00E94EF086B017D
:100F30007C010E94C802882349F0809130028B30E6
:100F4000B9F120F08551823008F485C0812C912CB4
:100F500080ECA82E8FE7B82E34C010912C02612FA0
:100F60006F7770E090E080E00E94F10820E030E0D0
:100F700040E853E40E947D096B017C0160912D02E1
:100F800070E090E080E00E94F108A70196010E94C5
:100F90004D082DEC3CEC4CEC5DE30E947D096B01AF
:100FA0007C0117FFC6CFF7FAF094F7F8F094C1CFA1
:100FB00060912A0270E090E080E00E94EF084B010F
:100FC0005C0160E671E08DE891E00E941505C301C7
:100FD000B2010E94B908CB010E9424056CE671E0C1
:100FE0008DE891E00E9415056FE671E08DE891E0D3
:100FF0000E941505C701B6010E94B908CB010E94E5
:1010000024056CE671E08DE891E00E94150567E724
:1010100071E08DE891E00E941505C501B4010E94C0
:10102000B908CB010E94240560E871E08DE891E0E9
:101030000E94150568EE73E080E090E00E94960241
:10104000209709F436CF0E943C01882309F431CF60
:101050000E9400002ECF60912A0270E090E080E0B4
:101060000E94EF0820E030E040E853E40E947D0950
:101070004B015C0160912B0270E090E080E00E94E7
:10108000F108A50194010E944D082DEC3CEC4CECBC
:101090005DE30E947D0993CF5058BB27AA270E9489
:1010A00064080C9443090E94350938F00E943C09F9
:1010B00020F039F49F3F19F426F40C9432090EF411
:1010C000E095E7FB0C942C09E92F0E94540958F392
:1010D000BA17620773078407950720F079F4A6F51D
:1010E0000C9476090EF4E0950B2EBA2FA02D0B016F
:1010F000B90190010C01CA01A0011124FF27591B5D
:1011000099F0593F50F4503E68F11A16F040A22F62
:10111000232F342F4427585FF3CF469537952795D3
:10112000A795F0405395C9F77EF41F16BA0B620BD2
:10113000730B840BBAF09150A1F0FF0FBB1F661F19
:10114000771F881FC2F70EC0BA0F621F731F841F5C
:1011500048F4879577956795B795F7959E3F08F082
:10116000B0CF9395880F08F09927EE0F9795879544
:1011700008950E94C0086894B1110C9477090895ED
:101180000E945C0988F09F5798F0B92F9927B751B2
:10119000B0F0E1F0660F771F881F991F1AF0BA951B
:1011A000C9F714C0B13091F00E947609B1E00895FA
:1011B0000C947609672F782F8827B85F39F0B93FEC
:1011C000CCF3869577956795B395D9F73EF49095CE
:1011D0008095709561957F4F8F4F9F4F0895E8944C
:1011E00009C097FB3EF490958095709561957F4F6F
:1011F0008F4F9F4F9923A9F0F92F96E9BB2793951D
:10120000F695879577956795B795F111F8CFFAF42C
:10121000BB0F11F460FF1BC06F5F7F4F8F4F9F4F5D
:1012200016C0882311F096E911C0772321F09EE8BB
:10123000872F762F05C0662371F096E8862F70E021
:1012400060E02AF09A95660F771F881FDAF7880FFB
:101250009695879597F9089597F99F6780E870E0CC
:1012600060E008959FEF80EC089500240A9416161C
:10127000170618060906089500240A941216130684
:10128000140605060895092E0394000C11F4882312
:1012900052F0BB0F40F4BF2B11F460FF04C06F5F2E
:1012A0007F4F8F4F9F4F089557FD9058440F551F04
:1012B00059F05F3F71F04795880F97FB991F61F0D8
:1012C0009F3F79F087950895121613061406551F4F
:1012D000F2CF4695F1DF08C0161617061806991FBB
:1012E000F1CF86957105610508940895E894BB27B0
:1012F00066277727CB0197F908950E9490090C94EF
:1013000043090E94350938F00E943C0920F09523DA
:1013100011F00C942C090C94320911240C947709C7
:101320000E94540970F3959FC1F3950F50E0551F2B
:10133000629FF001729FBB27F00DB11D639FAA272A
:10134000F00DB11DAA1F649F6627B00DA11D661F79
:10135000829F2227B00DA11D621F739FB00DA11D9A
:10136000621F839FA00D611D221F749F3327A00D54
:10137000611D231F849F600D211D822F762F6A2FF0
:1013800011249F5750409AF0F1F088234AF0EE0F55
:10139000FF1FBB1F661F771F881F91505040A9F782
:1013A0009E3F510580F00C942C090C9477095F3F07
:1013B000E4F3983ED4F3869577956795B795F795BE
:1013C000E7959F5FC1F7FE2B880F911D9695879536
:1013D00097F90895A1E21A2EAA1BBB1BFD010DC0AF
:1013E000AA1FBB1FEE1FFF1FA217B307E407F507D5
:1013F00020F0A21BB30BE40BF50B661F771F881FB1
:10140000991F1A9469F760957095809590959B0146
:10141000AC01BD01CF010895EE0FFF1F0590F491BF
:08142000E02D0994F894FFCFC0
:10142800000000007201D200FF00BF0130010E0170
:101438002201000000000F05D200CA03C9032D2DA8
:101448002D2D2D2D2D2D2D2D2D2D57656C636F6D6B
:101458006520746F2D2D2D2D2D2D2D2D2D2D00203A
:10146800202A4C616E64736C6964652050726576DD
:10147800656E74696F6E2073797374656D2A2000C8
:101488004D6F697374757265203D2000762C005489
:10149800656D70203D200048756D6964203D200011
:0414A8000D0A000029
:00000001FF
